:100000000C945D000C9485000C9485000C94850084
:100010000C9485000C9485000C9485000C9485004C
:100020000C9485000C9485000C9485000C9485003C
:100030000C9485000C9485000C9485000C9485002C
:100040000C94D6020C9485000C9446030C94200367
:100050000C9485000C9485000C9485000C9485000C
:100060000C9485000C94850000000008000201003B
:100070000003040700000000000000000000000072
:10008000250028002B0000000000240027002A0083
:10009000040404040404040402020202020203032E
:1000A0000303030301020408102040800102040836
:1000B0001020010204081020D60511241FBECFEF26
:1000C000D8E0DEBFCDBF21E0A2E2B1E001C01D92C9
:1000D000AA3EB207E1F711E0A0E0B1E0E6E1FCE002
:1000E00002C005900D92A232B107D9F710E0CDE51C
:1000F000D0E004C02197FE010E940306CC35D10751
:10010000C9F70E9478030C9409060C94000090E053
:10011000FC01EC55FF4F249180579F4FFC018491C7
:10012000882399F090E0880F991FFC01EA57FF4F50
:10013000A591B491FC01E458FF4F859194918FB73C
:10014000F894EC91E22BEC938FBF089590E0FC01C2
:10015000E859FF4F2491FC01EC55FF4F3491FC010D
:10016000E057FF4FE491EE23C9F0222339F023300A
:1001700001F1A8F4213019F1223029F1F0E0EE0F5D
:10018000FF1FE458FF4FA591B4918FB7F894EC91FD
:10019000611126C030953E233C938FBF08952730D0
:1001A000A9F02830C9F0243049F7809180008F7D74
:1001B00003C0809180008F7780938000DFCF84B56B
:1001C0008F7784BDDBCF84B58F7DFBCF8091B0006E
:1001D0008F778093B000D2CF8091B0008F7DF9CF20
:1001E0003E2BDACF3FB7F8948091490190914A01B4
:1001F000A0914B01B0914C0126B5A89B05C02F3FA3
:1002000019F00196A11DB11D3FBFBA2FA92F982F3C
:100210008827BC01CD01620F711D811D911D42E037
:10022000660F771F881F991F4A95D1F708958F92FF
:100230009F92AF92BF92CF92DF92EF92FF924B01CB
:100240005C010E94F2006B017C010E94F2006C19BB
:100250007D098E099F09683E734081059105A8F3C9
:1002600021E0821A9108A108B10888EEC80E83E047
:10027000D81EE11CF11C81149104A104B10429F7DA
:10028000FF90EF90DF90CF90BF90AF909F908F90B6
:100290000895AF92BF92CF92DF92EF92FF920F93A9
:1002A0001F93CF93DF936C017B018B01040F151F0C
:1002B000EB015E01AE18BF08C017D10759F0699174
:1002C000D601ED91FC910190F081E02DC6010995D8
:1002D000892B79F7C501DF91CF911F910F91FF9085
:1002E000EF90DF90CF90BF90AF900895FC01538DB9
:1002F000448D252F30E0842F90E0821B930B541700
:1003000010F0CF96089501970895FC01918D828D8C
:10031000981761F0A28DAE0FBF2FB11D5D968C9125
:10032000928D9F5F9F73928F90E008958FEF9FEF64
:100330000895FC01918D828D981731F0828DE80F20
:10034000F11D858D90E008958FEF9FEF0895FC01DA
:10035000918D228D892F90E0805C9F4F821B9109A7
:100360008F73992708958DE491E00E94A70121E001
:10037000892B09F420E0822F089580E090E0892BFA
:1003800029F00E94B30181110C9400000895FC0132
:10039000A48DA80FB92FB11DA35ABF4F2C91848DE6
:1003A00090E001968F739927848FA689B7892C9343
:1003B000A089B1898C91837080648C93938D848D96
:1003C000981306C00288F389E02D80818F7D808399
:1003D0000895EF92FF920F931F93CF93DF93EC0159
:1003E00081E0888F9B8D8C8D98131AC0E889F989DC
:1003F000808185FF15C09FB7F894EE89FF896083DF
:10040000E889F98980818370806480839FBF81E05F
:1004100090E0DF91CF911F910F91FF90EF900895A1
:10042000F62E0B8D10E00F5F1F4F0F731127E02E7C
:100430008C8D8E110CC00FB607FCFACFE889F989B4
:10044000808185FFF5CFCE010E94C701F1CFEB8DF2
:10045000EC0FFD2FF11DE35AFF4FF0829FB7F89488
:100460000B8FEA89FB8980818062CFCF682F8DE472
:1004700091E00C94E901CF93DF93EC01888D882300
:10048000B9F0AA89BB89E889F9898C9185FD03C0F7
:10049000808186FD0DC00FB607FCF7CF8C9185FFDC
:1004A000F2CF808185FFEDCFCE010E94C701E9CF59
:1004B000DF91CF9108956AE070E080E090E00E94C3
:1004C00017018DE491E00E94A701181619062CF47B
:1004D0008DE491E00E948501F4CF08958F929F9260
:1004E000AF92BF92CF92DF92EF92FF920F931F9342
:1004F000CF93DF938C01D0E0C0E0C12CD12C7601EA
:100500008FB7F8948090450190904601A0904701E4
:10051000B09048018FBF8DE491E00E94A701892B24
:10052000C9F42FB7F8948091450190914601A091AC
:100530004701B09148012FBF88199909AA09BB0941
:10054000893E9340A105B10530F3CC24CA94DC2C3C
:1005500076011DC08DE491E00E94850190E0B0E03D
:10056000A0E09E0143E0220F331F4A95E1F704C04B
:10057000880F991FAA1FBB1F2A95D2F7C82AD92A0C
:10058000EA2AFB2A21960C171D0709F0B9CFC701EB
:10059000B601DF91CF911F910F91FF90EF90DF9007
:1005A000CF90BF90AF909F908F9008951F920F9221
:1005B0000FB60F9211242F933F938F939F93AF9376
:1005C000BF938091450190914601A0914701B09160
:1005D00048013091440123E0230F2D3758F501964F
:1005E000A11DB11D209344018093450190934601C4
:1005F000A0934701B09348018091490190914A012D
:10060000A0914B01B0914C010196A11DB11D8093A9
:10061000490190934A01A0934B01B0934C01BF91C3
:10062000AF919F918F913F912F910F900FBE0F909F
:100630001F90189526E8230F0296A11DB11DD2CF59
:100640001F920F920FB60F9211242F933F934F9347
:100650005F936F937F938F939F93AF93BF93EF932A
:10066000FF938DE491E00E94C701FF91EF91BF914C
:10067000AF919F918F917F916F915F914F913F913A
:100680002F910F900FBE0F901F9018951F920F92F1
:100690000FB60F9211242F938F939F93EF93FF9395
:1006A000E0915D01F0915E018081E0916301F09144
:1006B000640182FD1BC09081809166018F5F8F7302
:1006C00020916701821741F0E0916601F0E0E35B61
:1006D000FE4F958F80936601FF91EF919F918F91CF
:1006E0002F910F900FBE0F901F9018958081F4CF1F
:1006F000CF93DF93CDB7DEB7C054D1090FB6F894CE
:10070000DEBF0FBECDBF789484B5826084BD84B552
:10071000816084BD85B5826085BD85B5816085BDFC
:1007200080916E00816080936E00109281008091B4
:10073000810082608093810080918100816080933C
:100740008100809180008160809380008091B10061
:1007500084608093B1008091B00081608093B0008C
:1007600080917A00846080937A0080917A00826020
:1007700080937A0080917A00816080937A008091E2
:100780007A00806880937A001092C100E0915D0148
:10079000F0915E0182E08083E0915901F0915A016D
:1007A0001082E0915B01F0915C0180E18083109206
:1007B0006501E0916101F091620186E08083E09142
:1007C0005F01F0916001808180618083E0915F0131
:1007D000F0916001808188608083E0915F01F091F9
:1007E0006001808180688083E0915F01F091600109
:1007F00080818F7D808384E690E0A0E0B0E08093EC
:10080000510190935201A0935301B0935401E3E23C
:10081000F1E083E491E02FEF21938E179F07E1F73A
:1008200060ED77E080E090E00E9417010E945B029B
:100830008AEA90E00E94360285E590E00E94360246
:100840008DE491E00E943B0264E670E080E090E07D
:100850000E9417010E945B021FB7F8948091220149
:10086000811124C0EAE9F0E08491EEEAF0E094918D
:10087000E82FF0E0EE0FFF1FEA57FF4FA591B4916C
:10088000EC91E92321F461E08AE00E94A6008AE06D
:100890000E9487008CB580618CBD8CB580648CBD56
:1008A0008DE00E9487008BE00E94870080912201EA
:1008B0008F5F809322011FBF8CB58C7F8CBD8DB55F
:1008C0008E7F8DBD8CB5837F8CBD8CB58F7D8CBDAF
:1008D0008AE00E94870061E08AE00E94A6008DE025
:1008E0000E94870060E08DE00E94A6008E010F5FED
:1008F0001F4F90E0292E90E0392E8DE491E00E9468
:10090000A701181619060CF08FC061E08DE00E9457
:10091000A6008DE491E00E9485012091430130E022
:10092000F901ED5DFE4F80832F5F3F4F2F7133271D
:100930002093430199278430910509F481C00CF577
:100940008130910509F447C06CF4892B59F185E198
:1009500090E00E9436028DE491E00E943B020E94EA
:100960005B025EC08230910509F442C0039779F7BB
:1009700086E090E00E94360240E150E062E171E0E2
:1009800047C08231910509F46DC07CF48530910532
:1009900009F461C04097D9F60E945B0285E190E0BE
:1009A0000E94360286E090E020C08331910509F470
:1009B00063C08E3E910559F68DED90E00E9436029F
:1009C00040E250E063E271E08DE491E00E94490171
:1009D0008CEC90E00AC086E090E00E94360281E054
:1009E00090E00E94360290E080E00E94360214C03F
:1009F000F80120E211922A95E9F78FE389838DE0CF
:100A00008B8386E090E00E94360240E250E0B8011D
:100A10008DE491E00E9449018DE491E00E943B0247
:100A200060E08DE00E94A6002114310409F465CF36
:100A30000E94B301882309F460CF0E9400005DCFBB
:100A400086E090E00E94360290E080E00E9436024C
:100A500081E090E0CACF86E090E00E94360288E014
:100A600090E0C3CF81E090E00E946E02683009F40C
:100A700099CF85E190E0B9CF83E090E00E946E02CB
:100A80004B015C0183E090E00E946E026B017C01EF
:100A9000EFEF8E169E06AE06BE0609F458CFFFEFA6
:100AA000CF16DF06EF06FF0609F451CF86E090E08F
:100AB0000E9436028DE491E00E943B0260E08AE0F1
:100AC0000E94A60081149104A104B104D1F18FB752
:100AD000F894409045015090460160904701709015
:100AE00048018FBF8DE491E00E94A701892BC9F4D2
:100AF0002FB7F8948091450190914601A09147014C
:100B0000B09148012FBF84199509A609B709893EFC
:100B10009340A105B10530F361E08AE00E94A60090
:100B2000A8CF8DE491E00E9485018EBD00000DB438
:100B300007FEFDCF81E0881A9108A108B1088EB5A3
:100B4000C1CFC114D104E104F10459F146015701A8
:100B5000E1E4CE16D104E104F10428F080E4882E0B
:100B6000912CA12CB12CFE013196A401CF01880D4E
:100B7000991DBF011EBC00000DB407FEFDCF2EB5B0
:100B800021938E179F07B1F78DE491E00E944901F0
:100B90008DE491E00E943B02C818D908EA08FB08DE
:100BA000D0CF61E08AE00E94A6003ACFEDE4F1E008
:100BB0001382128288EE93E0A0E0B0E084839583F4
:100BC000A683B78384E091E09183808385EC90E0F5
:100BD0009587848784EC90E09787868780EC90E007
:100BE000918B808B81EC90E0938B828B82EC90E0F8
:100BF000958B848B86EC90E0978B868B118E128E72
:100C0000138E148E0895EE0FFF1F0590F491E02DC2
:060C10000994F894FFCFE7
:100C160000000000E901490176013B02A7018501B8
:100C2600990161726475696E6F0000000000000032
:020C36000000BC
:00000001FF
