:100000000C945D000C9485000C9485000C94850084
:100010000C9485000C9485000C9485000C9485004C
:100020000C9485000C9485000C9485000C9485003C
:100030000C9485000C9485000C9485000C9485002C
:100040000C94F9020C9485000C9469030C944303FE
:100050000C9485000C9485000C9485000C9485000C
:100060000C9485000C94850000000008000201003B
:100070000003040700000000000000000000000072
:10008000250028002B0000000000240027002A0083
:10009000040404040404040402020202020203032E
:1000A0000303030301020408102040800102040836
:1000B0001020010204081020100611241FBECFEFEB
:1000C000D8E0DEBFCDBF21E0A8E2B1E001C01D92C3
:1000D000A03FB207E1F711E0A0E0B1E0EAE8FCE000
:1000E00002C005900D92A832B107D9F710E0CDE516
:1000F000D0E004C02197FE010E943D06CC35D10717
:10010000C9F70E949B030C9443060C94000090E0F6
:10011000FC01EC55FF4F249180579F4FFC018491C7
:10012000882399F090E0880F991FFC01EA57FF4F50
:10013000A591B491FC01E458FF4F859194918FB73C
:10014000F894EC91E22BEC938FBF089590E0FC01C2
:10015000E859FF4F2491FC01EC55FF4F3491FC010D
:10016000E057FF4FE491EE23C9F0222339F023300A
:1001700001F1A8F4213019F1223029F1F0E0EE0F5D
:10018000FF1FE458FF4FA591B4918FB7F894EC91FD
:10019000611126C030953E233C938FBF08952730D0
:1001A000A9F02830C9F0243049F7809180008F7D74
:1001B00003C0809180008F7780938000DFCF84B56B
:1001C0008F7784BDDBCF84B58F7DFBCF8091B0006E
:1001D0008F778093B000D2CF8091B0008F7DF9CF20
:1001E0003E2BDACF3FB7F89480914F0190915001A8
:1001F000A0915101B091520126B5A89B05C02F3F97
:1002000019F00196A11DB11D3FBFBA2FA92F982F3C
:100210008827BC01CD01620F711D811D911D42E037
:10022000660F771F881F991F4A95D1F708958F92FF
:100230009F92AF92BF92CF92DF92EF92FF924B01CB
:100240005C010E94F2006B017C010E94F2006C19BB
:100250007D098E099F09683E734081059105A8F3C9
:1002600021E0821A9108A108B10888EEC80E83E047
:10027000D81EE11CF11C81149104A104B10429F7DA
:10028000FF90EF90DF90CF90BF90AF909F908F90B6
:100290000895AF92BF92CF92DF92EF92FF920F93A9
:1002A0001F93CF93DF936C017B018B01040F151F0C
:1002B000EB015E01AE18BF08C017D10759F0699174
:1002C000D601ED91FC910190F081E02DC6010995D8
:1002D000892B79F7C501DF91CF911F910F91FF9085
:1002E000EF90DF90CF90BF90AF900895FC01538DB9
:1002F000448D252F30E0842F90E0821B930B541700
:1003000010F0CF96089501970895FC01918D828D8C
:10031000981761F0A28DAE0FBF2FB11D5D968C9125
:10032000928D9F5F9F73928F90E008958FEF9FEF64
:100330000895FC01918D828D981731F0828DE80F20
:10034000F11D858D90E008958FEF9FEF0895FC01DA
:10035000918D228D892F90E0805C9F4F821B9109A7
:100360008F739927089583E591E00E94A70121E00A
:10037000892B09F420E0822F089580E090E0892BFA
:1003800029F00E94B30181110C9400000895FC0132
:10039000A48DA80FB92FB11DA35ABF4F2C91848DE6
:1003A00090E001968F739927848FA689B7892C9343
:1003B000A089B1898C91837080648C93938D848D96
:1003C000981306C00288F389E02D80818F7D808399
:1003D0000895EF92FF920F931F93CF93DF93EC0159
:1003E00081E0888F9B8D8C8D98131AC0E889F989DC
:1003F000808185FF15C09FB7F894EE89FF896083DF
:10040000E889F98980818370806480839FBF81E05F
:1004100090E0DF91CF911F910F91FF90EF900895A1
:10042000F62E0B8D10E00F5F1F4F0F731127E02E7C
:100430008C8D8E110CC00FB607FCFACFE889F989B4
:10044000808185FFF5CFCE010E94C701F1CFEB8DF2
:10045000EC0FFD2FF11DE35AFF4FF0829FB7F89488
:100460000B8FEA89FB8980818062CFCF682F83E57B
:1004700091E00C94E901CF93DF93EC01888D882300
:10048000B9F0AA89BB89E889F9898C9185FD03C0F7
:10049000808186FD0DC00FB607FCF7CF8C9185FFDC
:1004A000F2CF808185FFEDCFCE010E94C701E9CF59
:1004B000DF91CF910895EF92FF920F931F93CF9307
:1004C000DF93EC018C01060F171F83E7E82EF12C58
:1004D000699183E591E00E94E90183E591E00E9442
:1004E0003B02C7010197F1F7C017D10789F7DF91E8
:1004F000CF911F910F91FF90EF9008956AE070E007
:1005000080E090E00E94170183E591E00E94A7013E
:10051000181619062CF483E591E00E948501F4CFAA
:1005200008958F929F92AF92BF92CF92DF92EF92F7
:10053000FF920F931F93CF93DF938C01D0E0C0E025
:10054000C12CD12C76018FB7F89480904B019090FC
:100550004C01A0904D01B0904E018FBF83E591E01A
:100560000E94A701892BC9F42FB7F89480914B0101
:1005700090914C01A0914D01B0914E012FBF88196F
:100580009909AA09BB09893E9340A105B10530F339
:10059000CC24CA94DC2C76011DC083E591E00E9436
:1005A000850190E0B0E0A0E09E0143E0220F331F00
:1005B0004A95E1F704C0880F991FAA1FBB1F2A950F
:1005C000D2F7C82AD92AEA2AFB2A21960C171D0736
:1005D00009F0B9CFC701B601DF91CF911F910F91FB
:1005E000FF90EF90DF90CF90BF90AF909F908F9053
:1005F00008951F920F920FB60F9211242F933F93DD
:100600008F939F93AF93BF9380914B0190914C0137
:10061000A0914D01B0914E0130914A0123E0230F8A
:100620002D3758F50196A11DB11D20934A018093E5
:100630004B0190934C01A0934D01B0934E018091DA
:100640004F0190915001A0915101B091520101963A
:10065000A11DB11D80934F0190935001A0935101B2
:10066000B0935201BF91AF919F918F913F912F9184
:100670000F900FBE0F901F90189526E8230F02963B
:10068000A11DB11DD2CF1F920F920FB60F92112450
:100690002F933F934F935F936F937F938F939F938A
:1006A000AF93BF93EF93FF9383E591E00E94C7015F
:1006B000FF91EF91BF91AF919F918F917F916F913A
:1006C0005F914F913F912F910F900FBE0F901F9010
:1006D00018951F920F920FB60F9211242F938F939C
:1006E0009F93EF93FF93E0916301F0916401808108
:1006F000E0916901F0916A0182FD1BC090818091B7
:100700006C018F5F8F7320916D01821741F0E09132
:100710006C01F0E0ED5AFE4F958F80936C01FF91D4
:10072000EF919F918F912F910F900FBE0F901F907F
:1007300018958081F4CFCF93DF93CDB7DEB7C75440
:10074000D1090FB6F894DEBF0FBECDBF789484B543
:10075000826084BD84B5816084BD85B5826085BDBD
:1007600085B5816085BD80916E00816080936E004B
:10077000109281008091810082608093810080913D
:1007800081008160809381008091800081608093EE
:1007900080008091B10084608093B1008091B000AE
:1007A00081608093B00080917A00846080937A00A9
:1007B00080917A00826080937A0080917A008160D3
:1007C00080937A0080917A00806880937A001092FA
:1007D000C100E0916301F091640182E08083E091C7
:1007E0005F01F09160011082E0916101F09162017E
:1007F00080E1808310926B01E0916701F0916801C4
:1008000086E08083E0916501F091660180818061DE
:100810008083E0916501F09166018081886080832A
:10082000E0916501F0916601808180688083E091AC
:100830006501F091660180818F7D808384E690E080
:10084000A0E0B0E08093570190935801A093590124
:10085000B0935A01E9E2F1E089E491E02FEF2193AE
:100860008E179F07E1F760ED77E080E090E00E944F
:1008700017010E947E028AEA90E00E94360285E516
:1008800090E00E94360283E591E00E943B021FB790
:10089000F89480912801811124C0EAE9F0E0849164
:1008A000EEEAF0E09491E82FF0E0EE0FFF1FEA5738
:1008B000FF4FA591B491EC91E92321F461E08AE026
:1008C0000E94A6008AE00E9487008CB580618CBDE2
:1008D0008CB580648CBD8DE00E9487008BE00E9407
:1008E0008700809128018F5F809328011FBF8CB5FE
:1008F0008C7F8CBD8DB58E7F8DBD8CB5837F8CBD7F
:100900008CB58F7D8CBD8AE00E94870061E08AE013
:100910000E94A6008DE00E94870060E08DE00E94AA
:10092000A6004090000150900101609002018E01EC
:100930000F5F1F4F20910301309104014091050189
:1009400028962DAF3EAF4FAF289723E7222E312CAC
:1009500096E0792E83E591E00E94A701181619060A
:100960000CF089C061E08DE00E94A60083E591E073
:100970000E9485012091490130E0F901E75DFE4FB9
:1009800080832F5F3F4F2F71332720934901992791
:100990008430910509F47CC00CF58130910509F48F
:1009A00042C034F4892B09F484C085E190E083C00F
:1009B0008230910509F442C00397B9F786E090E0D0
:1009C0000E94360283E591E00E943B02C10101973B
:1009D000F1F760E170E088E191E047C08231910574
:1009E00009F460C054F48530910509F455C040976E
:1009F000E1F655E159837A8252C08331910509F4B9
:100A000061C08E3E910589F68DED90E00E94360220
:100A100040E250E069E271E083E591E00E94490123
:100A20008CEC90E048C028968DAD9EADAFAD289778
:100A300089839A83AB8363E070E016C0F80120E2FB
:100A400011922A95E9F73FE339838DE08B8386E0A5
:100A500090E00E94360283E591E00E943B02C101D2
:100A60000197F1F760E270E0C8010E945B0260E06C
:100A70008DE00E94A60080E090E0892B09F46ACF07
:100A80000E94B301882309F463CF0E94000060CF65
:100A900049825A826B82CFCF798248E04A8362E0F2
:100AA00070E0E2CF81E090E00E949102683009F0AE
:100AB0007CCF86E090E00E94360283E591E00E94C0
:100AC0003B02D5CF83E090E00E9491024B015C0194
:100AD00083E090E00E9491026B017C018FEF881609
:100AE0009806A806B80631F09FEFC916D906E906A0
:100AF000F90659F485E190E00E94360283E591E021
:100B00000E943B020E947E02B2CF60E08AE00E9417
:100B1000A60081149104A104B10409F446C08FB762
:100B2000F89420914B0130914C0140914D0150912E
:100B30004E0125962CAF3DAF4EAF5FAF25978FBFCF
:100B400083E591E00E94A701892BF9F42FB7F8946F
:100B500080914B0190914C01A0914D01B0914E01BB
:100B60002FBF25962CAD3DAD4EAD5FAD2597821BB9
:100B7000930BA40BB50B893E9340A105B10500F37F
:100B800061E08AE00E94A60010CF83E591E00E9418
:100B900085018EBD00000DB407FEFDCF41E0841A33
:100BA0009108A108B1088EB5B4CF86E090E00E940C
:100BB000360283E591E00E943B028BE193E00197CE
:100BC000F1F7C114D104E104F10429F14601570100
:100BD00051E4C516D104E104F10428F080E4882E24
:100BE000912CA12CB12CFE013196B4019F01280D4E
:100BF000391DCF011EBC00000DB407FEFDCF4EB560
:100C000041932E173F07B1F70E945B02C818D9081D
:100C1000EA08FB08D6CF61E08AE00E94A60027CF51
:100C2000E3E5F1E01382128288EE93E0A0E0B0E009
:100C300084839583A683B7838AE091E09183808340
:100C400085EC90E09587848784EC90E09787868791
:100C500080EC90E0918B808B81EC90E0938B828B89
:100C600082EC90E0958B848B86EC90E0978B868B62
:100C7000118E128E138E148E0895EE0FFF1F0590A5
:0A0C8000F491E02D0994F894FFCFE1
:100C8A0006400006010000000000E9014901760162
:100C9A003B02A7018501990161726475696E6F0053
:080CAA00000000000000000042
:00000001FF
