:100000000C945D000C9485000C9485000C94850084
:100010000C9485000C9485000C9485000C9485004C
:100020000C9485000C9485000C9485000C9485003C
:100030000C9485000C9485000C9485000C9485002C
:100040000C94DD020C9485000C944D030C94270352
:100050000C9485000C9485000C9485000C9485000C
:100060000C9485000C94850000000008000201003B
:100070000003040700000000000000000000000072
:10008000250028002B0000000000240027002A0083
:10009000040404040404040402020202020203032E
:1000A0000303030301020408102040800102040836
:1000B0001020010204081020380611241FBECFEFC3
:1000C000D8E0DEBFCDBF21E0A0E3B1E001C01D92CA
:1000D000A83FB207E1F711E0A0E0B1E0EAEDFCE0F3
:1000E00002C005900D92A033B107D9F710E0CDE51D
:1000F000D0E004C02197FE010E946506CC35D107EF
:10010000C9F70E947F030C946B060C94000090E0EA
:10011000FC01EC55FF4F249180579F4FFC018491C7
:10012000882399F090E0880F991FFC01EA57FF4F50
:10013000A591B491FC01E458FF4F859194918FB73C
:10014000F894EC91E22BEC938FBF089590E0FC01C2
:10015000E859FF4F2491FC01EC55FF4F3491FC010D
:10016000E057FF4FE491EE23C9F0222339F023300A
:1001700001F1A8F4213019F1223029F1F0E0EE0F5D
:10018000FF1FE458FF4FA591B4918FB7F894EC91FD
:10019000611126C030953E233C938FBF08952730D0
:1001A000A9F02830C9F0243049F7809180008F7D74
:1001B00003C0809180008F7780938000DFCF84B56B
:1001C0008F7784BDDBCF84B58F7DFBCF8091B0006E
:1001D0008F778093B000D2CF8091B0008F7DF9CF20
:1001E0003E2BDACF3FB7F894809157019091580198
:1001F000A0915901B0915A0126B5A89B05C02F3F87
:1002000019F00196A11DB11D3FBFBA2FA92F982F3C
:100210008827BC01CD01620F711D811D911D42E037
:10022000660F771F881F991F4A95D1F708958F92FF
:100230009F92AF92BF92CF92DF92EF92FF924B01CB
:100240005C010E94F2006B017C010E94F2006C19BB
:100250007D098E099F09683E734081059105A8F3C9
:1002600021E0821A9108A108B10888EEC80E83E047
:10027000D81EE11CF11C81149104A104B10429F7DA
:10028000FF90EF90DF90CF90BF90AF909F908F90B6
:100290000895AF92BF92CF92DF92EF92FF920F93A9
:1002A0001F93CF93DF936C017B018B01040F151F0C
:1002B000EB015E01AE18BF08C017D10759F0699174
:1002C000D601ED91FC910190F081E02DC6010995D8
:1002D000892B79F7C501DF91CF911F910F91FF9085
:1002E000EF90DF90CF90BF90AF900895FC01538DB9
:1002F000448D252F30E0842F90E0821B930B541700
:1003000010F0CF96089501970895FC01918D828D8C
:10031000981761F0A28DAE0FBF2FB11D5D968C9125
:10032000928D9F5F9F73928F90E008958FEF9FEF64
:100330000895FC01918D828D981731F0828DE80F20
:10034000F11D858D90E008958FEF9FEF0895FC01DA
:10035000918D228D892F90E0805C9F4F821B9109A7
:100360008F73992708958BE591E00E94A70121E002
:10037000892B09F420E0822F089580E090E0892BFA
:1003800029F00E94B30181110C9400000895FC0132
:10039000A48DA80FB92FB11DA35ABF4F2C91848DE6
:1003A00090E001968F739927848FA689B7892C9343
:1003B000A089B1898C91837080648C93938D848D96
:1003C000981306C00288F389E02D80818F7D808399
:1003D0000895EF92FF920F931F93CF93DF93EC0159
:1003E00081E0888F9B8D8C8D98131AC0E889F989DC
:1003F000808185FF15C09FB7F894EE89FF896083DF
:10040000E889F98980818370806480839FBF81E05F
:1004100090E0DF91CF911F910F91FF90EF900895A1
:10042000F62E0B8D10E00F5F1F4F0F731127E02E7C
:100430008C8D8E110CC00FB607FCFACFE889F989B4
:10044000808185FFF5CFCE010E94C701F1CFEB8DF2
:10045000EC0FFD2FF11DE35AFF4FF0829FB7F89488
:100460000B8FEA89FB8980818062CFCF682F8BE573
:1004700091E00C94E901CF93DF93EC01888D882300
:10048000B9F0AA89BB89E889F9898C9185FD03C0F7
:10049000808186FD0DC00FB607FCF7CF8C9185FFDC
:1004A000F2CF808185FFEDCFCE010E94C701E9CF59
:1004B000DF91CF9108956AE070E080E090E00E94C3
:1004C00017018BE591E00E94A701181619062CF47C
:1004D0008BE591E00E948501F4CF08958F929F9261
:1004E000AF92BF92CF92DF92EF92FF920F931F9342
:1004F000CF93DF938C01D0E0C0E0C12CD12C7601EA
:100500008FB7F8948090530190905401A0905501BA
:10051000B09056018FBF8BE591E00E94A701892B17
:10052000C9F42FB7F8948091530190915401A09190
:100530005501B09156012FBF88199909AA09BB0925
:10054000893E9340A105B10530F3CC24CA94DC2C3C
:1005500076011DC08BE591E00E94850190E0B0E03E
:10056000A0E09E0143E0220F331F4A95E1F704C04B
:10057000880F991FAA1FBB1F2A95D2F7C82AD92A0C
:10058000EA2AFB2A21960C171D0709F0B9CFC701EB
:10059000B601DF91CF911F910F91FF90EF90DF9007
:1005A000CF90BF90AF909F908F9008958EBD000028
:1005B0000DB407FEFDCF8EB508951F920F920FB6B2
:1005C0000F9211242F933F938F939F93AF93BF93D9
:1005D0008091530190915401A0915501B091560121
:1005E0003091520123E0230F2D3758F50196A11DBC
:1005F000B11D209352018093530190935401A09315
:100600005501B09356018091570190915801A091E6
:100610005901B0915A010196A11DB11D8093570156
:1006200090935801A0935901B0935A01BF91AF9193
:100630009F918F913F912F910F900FBE0F901F9020
:10064000189526E8230F0296A11DB11DD2CF1F9247
:100650000F920FB60F9211242F933F934F935F93F6
:100660006F937F938F939F93AF93BF93EF93FF937A
:100670008BE591E00E94C701FF91EF91BF91AF918F
:100680009F918F917F916F915F914F913F912F91AA
:100690000F900FBE0F901F9018951F920F920FB6DC
:1006A0000F9211242F938F939F93EF93FF93E091D9
:1006B0006B01F0916C018081E0917101F091720108
:1006C00082FD1BC09081809174018F5F8F73209198
:1006D0007501821741F0E0917401F0E0E55AFE4F98
:1006E000958F80937401FF91EF919F918F912F913E
:1006F0000F900FBE0F901F9018958081F4CFCF936D
:10070000DF93CDB7DEB7E0970FB6F894DEBF0FBE2C
:10071000CDBF789484B5826084BD84B5816084BD8A
:1007200085B5826085BD85B5816085BD80916E008F
:10073000816080936E0010928100809181008260C0
:1007400080938100809181008160809381008091FD
:1007500080008160809380008091B10084608093EC
:10076000B1008091B00081608093B00080917A00E8
:10077000846080937A0080917A00826080937A000E
:1007800080917A00816080937A0080917A008068FD
:1007900080937A001092C100E0916B01F0916C019E
:1007A00082E08083E0916701F09168011082E0911E
:1007B0006901F0916A0180E1808310927301E091F8
:1007C0006F01F091700186E08083E0916D01F091FE
:1007D0006E01808180618083E0916D01F0916E01F6
:1007E000808188608083E0916D01F0916E0180814D
:1007F00080688083E0916D01F0916E0180818F7D32
:10080000808384E690E0A0E0B0E080935F01909365
:100810006001A0936101B0936201E1E3F1E081E541
:1008200091E02FEF21938E179F07E1F760ED77E0BE
:1008300080E090E00E9417010E945B028AEA90E04B
:100840000E94360285E590E00E9436028BE591E039
:100850000E943B021FB7F89480913001811124C09F
:10086000EAE9F0E08491EEEAF0E09491E82FF0E01C
:10087000EE0FFF1FEA57FF4FA591B491EC91E923CA
:1008800021F461E08AE00E94A6008AE00E948700CD
:100890008CB580618CBD8CB580648CBD8DE00E9470
:1008A00087008BE00E948700809130018F5F8093EA
:1008B00030011FBF8CB58C7F8CBD8DB58E7F8DBDFB
:1008C0008CB5837F8CBD8CB58F7D8CBD8AE00E94FA
:1008D000870061E08AE00E94A6008DE00E94870008
:1008E00060E08DE00E94A6008091000190910101DE
:1008F000A0910201B09103018BA39CA3ADA3BEA361
:100900008091040190910501A0910601B091070129
:100910008FA398A7A9A7BAA7809108019091090170
:10092000A0910A018BA79CA7ADA780910B01909184
:100930000C01A0910D018EA79FA7A8AB46E0342E15
:1009400055E1252EDE011396BAA3A9A38BE591E00C
:100950000E94A701181619060CF0D0C061E08DE0C6
:100960000E94A6008BE591E00E9485012091510133
:1009700030E0F901EF5CFE4F80832F5F3F4F2F7116
:1009800033272093510199278530910509F46EC0D2
:10099000BCF48230910509F442C044F4009709F494
:1009A00082C0019799F185E190E07FC08330910585
:1009B00009F44BC00497B9F78BA59CA5ADA529C038
:1009C0008131910509F463C04CF48830910509F434
:1009D00053C0409741F729823A824BC08331910539
:1009E00009F466C00CF458C08E3E9105E1F68DED19
:1009F00090E00E94360240E250E061E371E08BE556
:100A000091E00E9449018CEC90E04FC08EA59FA51B
:100A1000A8A989839A83AB8343E050E012C08EE19A
:100A2000A9A1BAA11D928A95E9F78FE3898381E094
:100A30008A838FE08B8386E090E00E94360240E25A
:100A400050E0BE016F5F7F4F08C086E090E00E94DB
:100A5000360240E150E060E271E08BE591E00E94F7
:100A600049018BE591E00E943B0244C0398298E045
:100A70009A8342E050E0E5CF8FA198A5A9A5BAA539
:100A800089839A83AB83BC8344E050E0DACF8BA1A7
:100A90009CA1ADA1BEA1F4CF81E090E00E946E02C6
:100AA000683009F080CF86E090E00E943602D9CF0E
:100AB00083E090E00E946E024B015C0183E090E0D5
:100AC0000E946E026B017C019FEF89169906A906B0
:100AD000B90631F0AFEFCA16DA06EA06FA06D9F41B
:100AE00085E190E00E9436028BE591E00E943B0296
:100AF0000E945B0260E08DE00E94A60080E090E032
:100B0000892B09F423CF0E94B301882309F416CF5F
:100B10000E94000013CF60E08AE00E94A6008114CA
:100B20009104A104B104B1F18FB7F894409053013E
:100B30005090540160905501709056018FBF8BE525
:100B400091E00E94A701892BC9F42FB7F8948091F6
:100B5000530190915401A0915501B09156012FBFBE
:100B600084199509A609B709893E9340A105B105E5
:100B700030F361E08AE00E94A60015CFF1E08F1A01
:100B80009108A108B1088BE591E00E9485010E94BF
:100B9000D602C5CFC114D104E104F10469F486E0A2
:100BA00090E00E9436028BE591E00E943B0261E0FA
:100BB0008AE00E94A6009ECF2601370120E2C216DD
:100BC000D104E104F10428F03FE1432E512C612CC3
:100BD000712C39828201AA24A394B12CAC0EBD1EC3
:100BE000A40CB51CCE0101964C0180E00E94D602F7
:100BF000D40111968C93BFEF8B1A9B0A8A149B0425
:100C0000A1F7A8014F5F5F4FBE016F5F7F4F8BE57C
:100C100091E00E9449018BE591E00E943B02C418DB
:100C2000D508E608F70809F4C2CF26013701F1E23A
:100C3000CF16D104E104F10428F090E2492E512CA2
:100C4000612C712C4201AA24A394B12CAC0EBD1EC0
:100C5000A40CB51C8E010F5F1F4F80E00E94D602CE
:100C6000F80181938F01EA15FB05B9F7A401CCCFF8
:100C7000EBE5F1E01382128288EE93E0A0E0B0E0B1
:100C800084839583A683B78382E191E091838083F7
:100C900085EC90E09587848784EC90E09787868741
:100CA00080EC90E0918B808B81EC90E0938B828B39
:100CB00082EC90E0958B848B86EC90E0978B868B12
:100CC000118E128E138E148E0895EE0FFF1F059055
:0A0CD000F491E02D0994F894FFCF91
:100CDA000640000006200000064000060100000051
:100CEA000000E901490176013B02A701850199014A
:100CFA0061726475696E6F000000000000000000F8
:00000001FF
